{
  "contractName": "Adopt",
  "abi": [
    {
      "constant": true,
      "inputs": [
        {
          "name": "",
          "type": "uint256"
        }
      ],
      "name": "Pets",
      "outputs": [
        {
          "name": "id",
          "type": "uint256"
        },
        {
          "name": "adopted",
          "type": "bool"
        }
      ],
      "payable": false,
      "stateMutability": "view",
      "type": "function",
      "signature": "0x14deb227"
    },
    {
      "anonymous": false,
      "inputs": [
        {
          "indexed": false,
          "name": "id",
          "type": "uint256"
        },
        {
          "indexed": false,
          "name": "completed",
          "type": "bool"
        }
      ],
      "name": "AdoptCompleted",
      "type": "event",
      "signature": "0xd83f9311af095634f4b84e632dd1a4d743651e1c3b08f8fa3375b4de5401b5f8"
    },
    {
      "constant": false,
      "inputs": [
        {
          "name": "_petId",
          "type": "uint256"
        }
      ],
      "name": "StatusChange",
      "outputs": [],
      "payable": false,
      "stateMutability": "nonpayable",
      "type": "function",
      "signature": "0x4884fc88"
    }
  ],
  "bytecode": "0x608060405234801561001057600080fd5b506101e1806100206000396000f3fe60806040526004361061004c576000357c0100000000000000000000000000000000000000000000000000000000900463ffffffff16806314deb227146100515780634884fc88146100ab575b600080fd5b34801561005d57600080fd5b5061008a6004803603602081101561007457600080fd5b81019080803590602001909291905050506100e6565b60405180838152602001821515151581526020019250505060405180910390f35b3480156100b757600080fd5b506100e4600480360360208110156100ce57600080fd5b8101908080359060200190929190505050610117565b005b60006020528060005260406000206000915090508060000154908060010160009054906101000a900460ff16905082565b6040805190810160405280828152602001600115158152506000808381526020019081526020016000206000820151816000015560208201518160010160006101000a81548160ff0219169083151502179055509050507fd83f9311af095634f4b84e632dd1a4d743651e1c3b08f8fa3375b4de5401b5f881600160405180838152602001821515151581526020019250505060405180910390a15056fea165627a7a72305820fa59ef68e8650130a97803280eaa27a00fcca9220f9299d0014f053121077a960029",
  "source": "// SPDX-License-Identifier: MIT\r\npragma solidity >=0.4.22 <0.8.0;\r\n\r\ncontract Adopt {\r\n  \r\n  struct Pet {\r\n      uint id;\r\n      bool adopted;\r\n  }\r\n\r\n\r\n  mapping(uint => Pet) public Pets;\r\n\r\n\r\n  event AdoptCompleted(\r\n    uint id,\r\n    bool completed\r\n  );\r\n\r\n  function StatusChange (uint _petId) public {\r\n        Pets[_petId] = Pet(_petId, true);\r\n        emit AdoptCompleted(_petId, true);\r\n  }\r\n\r\n \r\n}\r\n",
  "sourcePath": "C:/Users/mark/blockchain/pet-shop-tutorial/contracts/Adopt.sol",
  "compiler": {
    "name": "solc",
    "version": "0.5.0+commit.1d4f565a.Emscripten.clang"
  },
  "schemaVersion": "3.0.1",
  "updatedAt": "2021-07-05T09:30:52.925Z",
  "devdoc": {
    "methods": {}
  },
  "userdoc": {
    "methods": {}
  }
}